:10000000D0EF05F00000000000EF00F0000000005D
:0A0010000000000000000000F3D71C
:06001C00000000001200CC
:100022000F0E0C6E470E0D6E0D2EFED70C2EFCD74A
:06003200000000001200B6
:0A003800210E0D6E0D2EFED71200F2
:0E004200026A016A006A086A036A000E120070
:100050000B820BAE32EF00F00368026801680068A3
:080060000A360232FF0E120005
:080068000AAE029E000E120018
:1000700049BE02D08A9601D08A8649BC02D08A94B1
:1000800001D08A8449BA02D08A9201D08A8249B8C2
:1000900002D08A9001D08A8022B002D08A8801D012
:1000A0008A988A8ABBDF8A9A49B602D08A9601D09A
:1000B0008A8649B402D08A9401D08A8449B202D097
:1000C0008A9201D08A8249B002D08A9001D08A8077
:1000D00022B002D08A8801D08A988A8A9FDF8A9AC1
:0C00E00022A002D09EDF01D0A7DF12009A
:1000EC000B840BAE81EF00F0010E036E026A016A05
:0A00FC00006A0A360232FF0E1200FD
:1001060045C004F046C005F004C002F005C003F087
:10011600044A052A47C000F048C001F0474A482A69
:1001260000C0E9FF01C0EAFF02C0E1FF03C0E2FF31
:10013600EECFE6FF02C0E9FF03C0EAFFEE5201E0A0
:0C014600E3D745C000F046C001F01200F5
:100152000A6A0350D8A40A800750D8A40A820A5017
:10016200D8B40CEF01F0030AD8B4C5EF00F00AB01E
:10017200C0EF00F006AE0AEF01F008EF01F002AEA8
:1001820008EF01F00AEF01F00250800B0A6E029EA6
:100192000650800B069E0A18D8B4D6EF00F00A501B
:1001A200D8B408EF01F00AEF01F00750035CD8B4AD
:1001B200E0EF00F0D8A0FCEF00F002EF01F00650F3
:1001C200025CD8B4EAEF00F0D8A0FCEF00F002EF36
:1001D20001F00550015CD8B4F4EF00F0D8A0FCEFB8
:1001E20000F002EF01F00450005CD8B40CEF01F013
:1001F200D8B002EF01F00A52D8B40AEF01F008EFCA
:1002020001F00A52D8B408EF01F00AEF01F0D880E9
:0E0212001200D8901200D880D884120012007A
:0C022000229045C049F024DF228012002B
:10022C000D6A086A0050D8B4000C04180A6E0ABE95
:10023C000D1E0B6A04AE02D0041E042A00AE02D0BE
:10024C00001E002A005004100A6E0ABE1FD0045073
:10025C00085E003600340836045008260036060EB8
:10026C000C6E00340836045000B0085E00A008265E
:10027C0000360C2EF6D700A008260BB015D00DAE0C
:10028C00000C001E002A081E082A000C04AE09D01F
:10029C0000BE04D00050086E006AF1D7006A002A34
:1002AC00000C001E0B2AD3D7082A0450085CD8A4D3
:0E02BC00E6D7086A002A00AEE2D7FF0C120057
:0C02CA000E0E0D6E0D2EFED7000012006F
:1002D6000C6A0E6A0250D8A484EF01F001C002F045
:1002E60000C001F0006A0E860250D8A484EF01F027
:1002F60001C002F0016A0E960E880250D8B496EF3D
:1003060001F00E50035ED8A4D8A09BEF01F0D89060
:1003160002BEA0EF01F0003601360236032E8BEF47
:1003260001F09BEF01F0010E0C6E88DEA3EF01F0E9
:10033600020E0C6ED8DEA3EF01F0040E0C6E91DEF9
:020346001200A3
:10034800086A096A000E0762036429EF02F0025086
:1003580006180A6E075003267E0ED8A0BAEF01F0E1
:10036800035ED8B02DEF02F0BEEF01F0035ED8A017
:1003780031EF02F0028E068E02C00EF001C00BF0C3
:1003880000C00DF000500402F4CF0CF0015005023B
:10039800F4CF00F0F3CF08F00402F3500C26F45029
:1003A8000822000E00220D500502F3500C26F450CE
:1003B8000822000E002202500402F3500826F450CE
:1003C800002202500502016A000E0122F3500026A5
:1003D800F45001220D500602F3500826F450002272
:1003E800026A000E012202220B500602F350002678
:1003F800F4500122000E02220E500602F35001268C
:10040800F450022202BE11EF02F00836003601361F
:1004180002360306D8B431EF02F024EF02F0D88098
:10042800800E08640030000E002201220222D8A0AB
:1004380024EF02F0023201320032034A2DEF02F0BB
:100448000AAE029E000E33EF02F0010EF6DD33EF26
:1004580002F0020EF9DD33EF02F0040E43DE120063
:080468000B6A0B86FF0E120067
:10047000830EC21637C000F00036009000360090A0
:100480000050C21222DFC282C2A201D0FDD7C4CF67
:0E04900001F0006AC3500012000E01121200AB
:10049E000900F5CFE6FF0006FBE10106F9E11200C7
:1004AE00700E236E040E246E370E256E000E266E11
:1004BE00C26A211C006E0050C116070EC012C08EFB
:0404CE00C2801200D6
:1004D200939A939893909392939493968A9A8A98E4
:1004E2008A968A948A928A909BDD9ADD99DD8A8225
:1004F2008A808A8A92DD8A9A93DD8A8A8EDD8A9A36
:100502008FDD8A8A8ADD8A9A8BDD8A908A8A85DDE6
:100512008A9A86DD8A8A81DD8A9A8A928A868A8A7C
:100522007CDD8A9A7DDD8A968A808A8A76DD8A9A3D
:100532008A908A8A72DD8A9A73DD8A8A6EDD8A9A45
:100542008A808A8A6ADD8A9A6BDD8A908A8A65DD68
:100552008A9A8A868A848A828A808A8A5EDD8A9ACE
:060562005FDD22801200A3
:100568000450000A12E10550000A0FE10650000A83
:100578000CE10750000A09E1FF0E006EFF0E016E44
:100588007F0E026EFF0E036EA4D0086A096A075038
:10059800D8B45FEF03F00350D8B463EF03F0025010
:1005A80006180A6E028E068E0E6A02C008F001C096
:1005B8000CF000C00DF004500D5E0550D8A0053CAD
:1005C8000C5E0650D8A0063C085E086A0C6A0D6AE4
:1005D800D8A0F6EF02F0D890023201320032083289
:1005E800010E0E6E0750035ED8A003EF03F07E0ED7
:1005F8000E240326D8B067EF03F009EF03F07E0E50
:100608000E240326D8A06BEF03F0180E0B6E0D36E0
:100618000C3608360036013602360E360450005EB7
:100628000550D8A0053C015E0650D8A0063C025EE5
:1006380006340E120EA024EF03F00D802FEF03F006
:10064800045000260550D8B0053C01260650D8B005
:10065800062802260D900B2E0BEF03F055EF03F042
:10066800D8900036013602360E360450005E05502A
:10067800D8A0053C015E0650D8A0063C025E0634B0
:100688000E10010B0D26D8B00C2AD8B4082AD8A40D
:1006980055EF03F008320C320D32032AD8B467EF55
:1006A80003F00AAE089E0850026E0C50016E0D5001
:1006B800006E6DEF03F0010ED3DE6DEF03F0020E56
:1006C800BCDC6DEF03F0040EBFDC6DEF03F0080E29
:0406D80009DD120026
:1006DC00436A446A37C03FF038C040F039C041F03B
:1006EC003AC042F04250FF0A08E14150FF0A05E1CE
:1006FC004050FF0A02E13F50FF0A0CE13BC045F0BD
:10070C003CC046F01B0E476E000E486EF6DC030E26
:10071C00006EEBD1010E3D6E41AE0ED0800E411835
:10072C00006E00C041F03D2A3BC0E1FF3CC0E2FF3F
:10073C002D0EE66E3B4A3C2A000E006E421808E174
:10074C000050411805E10050401802E13F50000AEA
:10075C000BE13BC045F03CC046F01F0E476E000E4F
:10076C00486ECBDC006AC1D14250FF0A08E141500F
:10077C00000A05E14050000A02E13F50000A0CE17A
:10078C003BC045F03CC046F0150E476E000E486E5F
:10079C00B4DC3DC000F0A9D1000E046E000E056E55
:1007AC00000E066E7F0E076E3FC000F040C001F0D9
:1007BC0041C002F042C003F0C6DC010ED8B0000EFE
:1007CC00006E00521BE03FC000F040C001F041C081
:1007DC0002F042C003F0000E046E000E056E200EF7
:1007EC00066E820E076EAADD00C03FF001C040F01D
:1007FC0002C041F003C042F04406CED7000E046E96
:10080C00000E056E200E066E820E076E3FC000F0C5
:10081C0040C001F041C002F042C003F094DC000E75
:10082C00D8B0010E006E00521BE03FC000F040C07B
:10083C0001F041C002F042C003F0CD0E046ECC0EAC
:10084C00056E4C0E066E7B0E076E78DD00C03FF019
:10085C0001C040F002C041F003C042F0442ACED7A0
:10086C00FF0E3F14086EFF0E4014096E7F0E4114EC
:10087C000A6E000E42140B6E08C004F009C005F09D
:10088C000AC006F00BC007F0043604900536063695
:10089C000736000E3F14006E000E4014016E000E61
:1008AC004114026EFF0E4214036E00C03FF001C0F3
:1008BC0040F002C041F003C042F004503F10006E03
:1008CC0005504010016E06504110026E0750421048
:1008DC00036E00C03FF001C040F002C041F003C005
:1008EC0042F07F0E425C006E00C03EF0010E426E84
:1008FC0000C004F03FC000F040C001F041C002F065
:10090C0042C003F0045007E0003600900136023676
:10091C000336FF0FF8D700C03FF001C040F002C013
:10092C0041F003C042F03BC0E1FF3CC0E2FF42504B
:10093C00300FE66E3B4A3C2A800E4418006E800E47
:10094C00010A005C08E3800E060A006E800E441853
:10095C00005C01E30AD03BC0E1FF3CC0E2FF2E0E7D
:10096C00E66E3B4A3C2A010E436E060E3E6E3E502E
:10097C00000A54E0426A3FC000F040C001F041C0A0
:10098C0002F042C003F00036009001360236033606
:10099C00003600900136023603363F500026405098
:1009AC000122415002224250032200C03FF001C0FC
:1009BC0040F002C041F003C042F03FC000F040C024
:1009CC0001F041C002F042C003F000360090013645
:1009DC000236033600C03FF001C040F002C041F0C7
:1009EC0003C042F03BC0E1FF3CC0E2FF4250300F7D
:1009FC00E66E3B4A3C2A4350000A0EE14406445042
:100A0C00000A0AE13BC0E1FF3CC0E2FF2E0EE66E9D
:100A1C003B4A3C2A010E436E3E06A9D7FF0E3B24EF
:100A2C00E96EFF0E3C20EA6EEE50300A05E1010E35
:100A3C003B5E000E3C5AF2D7FF0E3B24E96EFF0ED4
:100A4C003C20EA6EEE502E0A04E1010E3B5E000ED5
:100A5C003C5A4450000A43E03BC0E1FF3CC0E2FF7B
:100A6C00650EE66E3B4A3C2A800E4418006E800EE2
:100A7C00000A005C0BE23BC0E1FF3CC0E2FF2D0E24
:100A8C00E66E3B4A3C2A44500008446E44C03EF09B
:100A9C00800E090A006E800E4418005C0FE20A0EEC
:100AAC00046E3EC000F016EC01F03BC0E1FF3CC010
:100ABC00E2FF0050300FE66E3B4A3C2A0A0E046EF1
:100ACC003EC000F016EC01F008C000F03BC0E1FFA6
:100ADC003CC0E2FF0050300FE66E3B4A3C2A3BC064
:0C0AEC00E1FF3CC0E2FFE66A006A120075
:100AF8000050086E0150006E016A026A036A0B6AB0
:100B08000C6A960E036E0A6A00C001F008C000F075
:0A0B1800086A026A6BEC01F012009B
:100B22000FD0800E376E19D0C00E376E16D0940ECD
:100B3200376E13D0D40E376E10D0800E376E0DD0B4
:100B42003750010AEEE03750020AEEE03750030A4E
:100B5200EEE03750040AEEE0F0D73804006E37506A
:100B6200002600C037F000C049F038EC00F02290B7
:100B72003B6A3B503924E96E000E3A20EA6EEE528F
:100B82000CE03B503924E96E000E3A20EA6EEECFBB
:0E0B920045F010EC01F03B2AECD72280120057
:100BA00027EC06F084DC300EC16E93DC010E496E3A
:100BB00038EC00F00C0E496E38EC00F0376A58DC67
:100BC0009BDF000E046E000E056E480E066E850E4D
:100BD000076EA4EC01F0000E046EC00E056E7F0ED1
:100BE000066E880E076EC0DC00C037F001C038F01A
:100BF00002C039F003C03AF0270E3B6E000E3C6E87
:100C00006DDD2B6A010E376E010E386E270E396EC0
:100C1000000E3A6E86DF010E376E060E386E190E24
:100C2000396E000E3A6E7DDF340E0C6EF10E0D6ED5
:100C30000D2EFED70C2EFCD700000000BFD7FFD72B
:100C4E0010EE15F00D0E006E010E016E400EF66EDA
:0E0C5E000C0EF76E000EF86E4FEC02F0120056
:040C4000494E4600D3
:020C440043006B
:040C46004E614E00AD
:020C4A00300078
:010C4C003077
:020000040030CA
:0E000000000C1F1EFF8381FF0FC00FE00F409A
:00000001FF
