:10000000FCEF05F00000000000EF00F00000000031
:0A0010000000000000000000F3D71C
:10001C000F0E0C6E470E0D6E0D2EFED70C2EFCD750
:06002C00000000001200BC
:06003200000000001200B6
:0A003800210E0D6E0D2EFED71200F2
:0E004200026A016A006A086A036A000E120070
:100050000B840BAE33EF00F0010E036E026A016AEF
:0A006000006A0A360232FF0E120099
:10006A000B820BAE3FEF00F003680268016800687C
:08007A000A360232FF0E1200EB
:100082003EBE02D08A9601D08A863EBC02D08A94B5
:1000920001D08A843EBA02D08A9201D08A823EB8C6
:1000A20002D08A9001D08A8026B002D08A8801D0FC
:1000B2008A988A8ABDDF8A9A3EB602D08A9601D091
:1000C2008A863EB402D08A9401D08A843EB202D09B
:1000D2008A9201D08A823EB002D08A9001D08A8070
:1000E20026B002D08A8801D08A988A8AA1DF8A9AA9
:0C00F20026A002D092DF01D09EDF120099
:0800FE000AAE029E000E120082
:0C01060026903AC03EF0BADF26801200BE
:0C0112000E0E0D6E0D2EFED70000120028
:10011E000A6A0350D8A40A800750D8A40A820A504B
:10012E00D8B4F2EF00F0030AD8B4ABEF00F00AB087
:10013E00A6EF00F006AEF0EF00F0EEEF00F002AE2C
:10014E00EEEF00F0F0EF00F00250800B0A6E029E10
:10015E000650800B069E0A18D8B4BCEF00F00A5069
:10016E00D8B4EEEF00F0F0EF00F00750035CD8B417
:10017E00C6EF00F0D8A0E2EF00F0E8EF00F0065076
:10018E00025CD8B4D0EF00F0D8A0E2EF00F0E8EFB8
:10019E0000F00550015CD8B4DAEF00F0D8A0E2EF21
:1001AE0000F0E8EF00F00450005CD8B4F2EF00F07D
:1001BE00D8B0E8EF00F00A52D8B4F0EF00F0EEEF4E
:1001CE0000F00A52D8B4EEEF00F0F0EF00F0D88055
:0E01DE001200D8901200D880D88412001200AF
:1001EC000D6A086A0050D8B4000C04180A6E0ABED6
:1001FC000D1E0B6A04AE02D0041E042A00AE02D0FF
:10020C00001E002A005004100A6E0ABE1FD00450B3
:10021C00085E003600340836045008260036060EF8
:10022C000C6E00340836045000B0085E00A008269E
:10023C0000360C2EF6D700A008260BB015D00DAE4C
:10024C00000C001E002A081E082A000C04AE09D05F
:10025C0000BE04D00050086E006AF1D7006A002A74
:10026C00000C001E0B2AD3D7082A0450085CD8A413
:0E027C00E6D7086A002A00AEE2D7FF0C120097
:10028A00086A096A000E07620364CAEF01F00250A5
:10029A0006180A6E075003267E0ED8A05BEF01F0FF
:1002AA00035ED8B0CEEF01F05FEF01F0035ED8A095
:1002BA00D2EF01F0028E068E02C00EF001C00BF0E2
:1002CA0000C00DF000500402F4CF0CF001500502FA
:1002DA00F4CF00F0F3CF08F00402F3500C26F450E8
:1002EA000822000E00220D500502F3500C26F4508D
:1002FA000822000E002202500402F3500826F4508D
:10030A00002202500502016A000E0122F350002663
:10031A00F45001220D500602F3500826F450002230
:10032A00026A000E012202220B500602F350002636
:10033A00F4500122000E02220E500602F35001264A
:10034A00F450022202BEB2EF01F00836003601363E
:10035A0002360306D8B4D2EF01F0C5EF01F0D88017
:10036A00800E08640030000E002201220222D8A06A
:10037A00C5EF01F0023201320032034ACEEF01F03A
:10038A000AAE029E000ED4EF01F0010E55DED4EF44
:10039A0001F0020E65DED4EF01F0040E54DE120005
:1003AA000C6A0E6A0250D8A4EEEF01F001C002F006
:1003BA0000C001F0006A0E860250D8A4EEEF01F0E8
:1003CA0001C002F0016A0E960E880250D8B400EFFE
:1003DA0002F00E50035ED8A4D8A005EF02F0D89020
:1003EA0002BE0AEF02F0003601360236032EF5EF9E
:1003FA0001F005EF02F0010E0C6E1EDE0DEF02F0A9
:10040A00020E0C6E20DE0DEF02F0040E0C6E72DE90
:02041A001200CE
:10041C003AC004F03BC005F004C002F005C003F084
:10042C00044A052A3CC000F03DC001F03C4A3D2A7C
:10043C0000C0E9FF01C0EAFF02C0E1FF03C0E2FF18
:10044C00EECFE6FF02C0E9FF03C0EAFFEE5201E087
:0C045C00E3D73AC000F03BC001F01200F2
:080468000B6A0B86FF0E120067
:100470000900F5CFE6FF0006FBE10106F9E11200F5
:10048000830EC2162CC000F000360090003600909B
:100490000050C2123EDEC282C2A201D0FDD7C4CF3C
:0E04A00001F0006AC3500012000E011212009B
:1004AE00800E226E040E236E2C0E246E000E256E10
:1004BE00C26A171C006E0050C116070EC012C08E05
:0404CE00C2801200D6
:1004D200939A939893909392939493968A9A8A98E4
:1004E2008A968A948A928A9098DD97DD96DD8A822E
:1004F2008A808A8A9DDD8A9A90DD8A8A99DD8A9A23
:100502008CDD8A8A95DD8A9A88DD8A908A8A90DDD6
:100512008A9A83DD8A8A8CDD8A9A8A928A868A8A74
:1005220087DD8A9A7ADD8A968A808A8A81DD8A9A2A
:100532008A908A8A7DDD8A9A70DD8A8A79DD8A9A32
:100542008A808A8A75DD8A9A68DD8A908A8A70DD55
:100552008A9A8A868A848A828A808A8A69DD8A9AC3
:060562005CDD26801200A2
:100568000FD0800E2C6E19D0C00E2C6E16D0940EA3
:100578002C6E13D0D40E2C6E10D0800E2C6E0DD095
:100588002C50010AEEE02C50020AEEE02C50030A2F
:10059800EEE02C50040AEEE0F0D72D04006E2C504B
:1005A800002600C02CF0268000C03EF066DD2690B4
:0A05B8002EC03EF062DD2680120026
:1005C2000450000A12E10550000A0FE10650000A29
:1005D2000CE10750000A09E1FF0E006EFF0E016EEA
:1005E2007F0E026EFF0E036EA4D0086A096A0750DE
:1005F200D8B48CEF03F00350D8B490EF03F002505C
:1006020006180A6E028E068E0E6A02C008F001C03B
:100612000CF000C00DF004500D5E0550D8A0053C52
:100622000C5E0650D8A0063C085E086A0C6A0D6A89
:10063200D8A023EF03F0D890023201320032083200
:10064200010E0E6E0750035ED8A030EF03F07E0E4F
:100652000E240326D8B094EF03F036EF03F07E0E9B
:100662000E240326D8A098EF03F0180E0B6E0D3659
:100672000C3608360036013602360E360450005E5D
:100682000550D8A0053C015E0650D8A0063C025E8B
:1006920006340E120EA051EF03F00D805CEF03F052
:1006A200045000260550D8B0053C01260650D8B0AB
:1006B200062802260D900B2E38EF03F082EF03F08E
:1006C200D8900036013602360E360450005E0550D0
:1006D200D8A0053C015E0650D8A0063C025E063456
:1006E2000E10010B0D26D8B00C2AD8B4082AD8A4B3
:1006F20082EF03F008320C320D32032AD8B494EFA1
:1007020003F00AAE089E0850026E0C50016E0D50A6
:10071200006E9AEF03F0010EA6DE9AEF03F0020ECE
:100722008FDC9AEF03F0040E9FDC9AEF03F0080EC1
:040732008EDC120047
:10073600386A396A2CC034F02DC035F02EC036F038
:100746002FC037F03750FF0A08E13650FF0A05E19F
:100756003550FF0A02E13450FF0A0CE130C03AF08E
:1007660031C03BF0180E3C6E000E3D6E54DE030E9B
:10077600006EEBD1010E326E36AE0ED0800E3618FC
:10078600006E00C036F0322A30C0E1FF31C0E2FF11
:100796002D0EE66E304A312A000E006E371808E13B
:1007A6000050361805E10050351802E13450000AB1
:1007B6000BE130C03AF031C03BF01C0E3C6E000E2F
:1007C6003D6E29DE006AC1D13750FF0A08E1365076
:1007D600000A05E13550000A02E13450000A0CE136
:1007E60030C03AF031C03BF01E0E3C6E000E3D6E3E
:1007F60012DE32C000F0A9D1000E046E000E056EA6
:10080600000E066E7F0E076E34C000F035C001F094
:1008160036C002F037C003F07FDC010ED8B0000E00
:10082600006E00521BE034C000F035C001F036C047
:1008360002F037C003F0000E046E000E056E200EA7
:10084600066E820E076E1EDD00C034F001C035F064
:1008560002C036F003C037F03906CED7000E046E5C
:10086600000E056E200E066E820E076E34C000F076
:1008760035C001F036C002F037C003F04DDC000E83
:10088600D8B0010E006E00521BE034C000F035C037
:1008960001F036C002F037C003F0CD0E046ECC0E68
:1008A600056E4C0E066E7B0E076EECDC00C034F057
:1008B60001C035F002C036F003C037F0392ACED772
:1008C600FF0E3414086EFF0E3514096E7F0E3614B3
:1008D6000A6E000E37140B6E08C004F009C005F04E
:1008E6000AC006F00BC007F004360490053606363B
:1008F6000736000E3414006E000E3514016E000E1D
:100906003614026EFF0E3714036E00C034F001C0B9
:1009160035F002C036F003C037F004503410006ED4
:1009260005503510016E06503610026E075037100E
:10093600036E00C034F001C035F002C036F003C0CB
:1009460037F07F0E375C006E00C033F0010E376E55
:1009560000C004F034C000F035C001F036C002F02B
:1009660037C003F0045007E0003600900136023627
:100976000336FF0FF8D700C034F001C035F002C0CF
:1009860036F003C037F030C0E1FF31C0E2FF375028
:10099600300FE66E304A312A800E3918006E800E0E
:1009A600010A005C08E3800E060A006E800E391804
:1009B600005C01E30AD030C0E1FF31C0E2FF2E0E39
:1009C600E66E304A312A010E386E060E336E33500B
:1009D600000A54E0376A34C000F035C001F036C072
:1009E60002F037C003F000360090013602360336B7
:1009F6000036009001360236033634500026355054
:100A06000122365002223750032200C034F001C0C2
:100A160035F002C036F003C037F034C000F035C000
:100A260001F036C002F037C003F000360090013600
:100A36000236033600C034F001C035F002C036F08D
:100A460003C037F030C0E1FF31C0E2FF3750300F4E
:100A5600E66E304A312A3850000A0EE1390639501E
:100A6600000A0AE130C0E1FF31C0E2FF2E0EE66E59
:100A7600304A312A010E386E3306A9D7FF0E3024CC
:100A8600E96EFF0E3120EA6EEE50300A05E1010EE6
:100A9600305E000E315AF2D7FF0E3024E96EFF0E9B
:100AA6003120EA6EEE502E0A04E1010E305E000E91
:100AB600315A3950000A43E030C0E1FF31C0E2FF4D
:100AC600650EE66E304A312A800E3918006E800EA9
:100AD600000A005C0BE230C0E1FF31C0E2FF2D0EE0
:100AE600E66E304A312A39500008396E39C033F083
:100AF600800E090A006E800E3918005C0FE20A0E9D
:100B0600046E33C000F0F6EC00F030C0E1FF31C0F7
:100B1600E2FF0050300FE66E304A312A0A0E046EAC
:100B260033C000F0F6EC00F008C000F030C0E1FF82
:100B360031C0E2FF0050300FE66E304A312A30C035
:0C0B4600E1FF31C0E2FFE66A006A120025
:100B52000050086E0150006E016A026A036A0B6A55
:100B62000C6A960E036E0A6A00C001F008C000F01B
:080B7200086A026A19DC120096
:100B7A000FD0800E2C6E19D0C00E2C6E16D0940E8B
:100B8A002C6E13D0D40E2C6E10D0800E2C6E0DD07D
:100B9A002C50010AEEE02C50020AEEE02C50030A17
:100BAA00EEE02C50040AEEE0F0D72D04006E2C5033
:100BBA00002600C02CF000C03EF041EC00F0269068
:100BCA00306A30502E24E96E000E2F20EA6EEE5263
:100BDA000CE030502E24E96E000E2F20EA6EEECF84
:0E0BEA003AF083EC00F0302AECD7268012009F
:100BF8005AEC06F058DC300EC16E67DC010E3E6E12
:100C080041EC00F00C0E3E6E41EC00F02C6A34DC36
:100C18009CDF000E046E000E056E480E066E850EF3
:100C2800076E45EC01F0000E046EC00E056E7F0ED7
:100C3800066E880E076EC1DC00C02CF001C02DF0D6
:100C480002C02EF003C02FF0270E306E000E316E5A
:100C58006EDD2B6A010E2C6E010E2D6E270E2E6E88
:100C6800000E2F6E86DF010E2C6E060E2D6EDF0E27
:100C78002E6E76DC010E2C6E070E2D6E150E2E6E66
:100C8800000E2F6E76DF340E0C6EF10E0D6E0D2EEB
:0E0C9800FED70C2EFCD700000000B8D7FFD707
:100CB40010EE15F00D0E006E010E016EA60EF66E0E
:0E0CC4000C0EF76E000EF86E38EC02F0120007
:020CA600430009
:010CA800301B
:040CA9004E614E004A
:020CAD00300015
:040CAF00494E460064
:020000040030CA
:0E000000000C1F1EFF8381FF0FC00FE00F409A
:00000001FF
