:10000000C3EF02F00000000000EF00F0000000006D
:0A0010000000000000000000F3D71C
:10001C000F0E0C6E470E0D6E0D2EFED70C2EFCD750
:06002C00000000001200BC
:06003200000000001200B6
:0A003800210E0D6E0D2EFED71200F2
:1000420035BE02D08A9601D08A8635BC02D08A9407
:1000520001D08A8435BA02D08A9201D08A8235B818
:1000620002D08A9001D08A801AB002D08A8801D048
:100072008A988A8ADDDF8A9A35B602D08A9601D0BA
:100082008A8635B402D08A9401D08A8435B202D0ED
:100092008A9201D08A8235B002D08A9001D08A80B9
:1000A2001AB002D08A8801D08A988A8AC1DF8A9AD5
:0C00B2001AA002D0B2DF01D0BEDF1200A5
:0C00BE001A9034C035F0BEDF1A8012002A
:0C00CA000E0E0D6E0D2EFED70000120071
:1000D6000900F5CFE6FF0006FBE10106F9E1120093
:1000E600830EC2162FC000F0003600900036009036
:1000F6000050C212E7DFC282C2A201D0FDD7C4CF30
:0E01060001F0006AC3500012000E0112120038
:10011400E60E166E000E176E2F0E186E000E196E78
:10012400C26A151C006E0050C116070EC012C08EA4
:04013400C280120073
:10013800939A939893909392939493968A9A8A9881
:100148008A968A948A928A9065DF64DF63DF8A825E
:100158008A808A8A6ADF8A9A5DDF8A8A66DF8A9A53
:1001680059DF8A8A62DF8A9A55DF8A908A8A5DDF38
:100178008A9A50DF8A8A59DF8A9A8A928A868A8A74
:1001880054DF8A9A47DF8A968A808A8A4EDF8A9A5B
:100198008A908A8A4ADF8A9A3DDF8A8A46DF8A9A63
:1001A8008A808A8A42DF8A9A35DF8A908A8A3DDF86
:1001B8008A9A8A868A848A828A808A8A36DF8A9A92
:0601C80029DF1A8012007D
:1001CE00220E0C6E086A096A0A6A0B6A0C06D8B40B
:1001DE001FD0D8900B320A32093208320332023263
:1001EE0001320032D8A0F2D70C06D8B409D0045090
:1001FE0008260550092206500A2207500B22EAD77C
:10020E00045008260550092206500A2207500B22D8
:02021E001200CC
:100220000B6A0A6A096A086A0E6A033408360450BF
:10023000085E0550D8A0053C095E0650D8A0063CD3
:100240000A5E0750D8A0073C0B5EE86AD8A0010EF2
:100250000E5E0336070E0C6E0334083609360A3676
:100260000B360E36045003A012D0085E0550D8A0FD
:10027000053C095E0650D8A0063C0A5E0750D8A08F
:10028000073C0B5EE86AD8A0010E0E5E11D008266E
:100290000550D8B0053C09260650D8B0063C0A26C1
:1002A0000750D8B0073C0B26E86AD8B0010E0E26DE
:1002B00003360C2ED1D70234083609360A360B36EF
:1002C0000E36045003A012D0085E0550D8A0053C9D
:1002D000095E0650D8A0063C0A5E0750D8A0073C2D
:1002E0000B5EE86AD8A0010E0E5E11D008260550FC
:1002F000D8B0053C09260650D8B0063C0A2607505F
:10030000D8B0073C0B26E86AD8B0010E0E2602369C
:10031000070E0C6E0234083609360A360B360E36D6
:10032000045002A012D0085E0550D8A0053C095E1A
:100330000650D8A0063C0A5E0750D8A0073C0B5ECA
:10034000E86AD8A0010E0E5E11D008260550D8B07C
:10035000053C09260650D8B0063C0A260750D8B0FE
:10036000073C0B26E86AD8B0010E0E2602360C2E8A
:10037000D1D70134083609360A360B360E3604500A
:1003800002A012D0085E0550D8A0053C095E0650B8
:10039000D8A0063C0A5E0750D8A0073C0B5EE86A6E
:1003A000D8A0010E0E5E11D008260550D8B0053C2D
:1003B00009260650D8B0063C0A260750D8B0073C9C
:1003C0000B26E86AD8B0010E0E260136070E0C6E19
:1003D0000134083609360A360B360E36045001A0B1
:1003E00012D0085E0550D8A0053C095E0650D8A082
:1003F000063C0A5E0750D8A0073C0B5EE86AD8A00E
:10040000010E0E5E11D008260550D8B0053C092615
:100410000650D8B0063C0A260750D8B0073C0B2639
:10042000E86AD8B0010E0E2601360C2ED1D7003462
:10043000083609360A360B360E36045001A012D0A3
:10044000085E0550D8A0053C095E0650D8A0063CC1
:100450000A5E0750D8A0073C0B5EE86AD8A0010EE0
:100460000E5E11D008260550D8B0053C092606506E
:10047000D8B0063C0A260750D8B0073C0B26E86ADD
:10048000D8B0010E0E260036070E0C6E003408366A
:1004900009360A360B360E36045000A012D0085E1C
:1004A0000550D8A0053C095E0650D8A0063C0A5E5F
:1004B0000750D8A0073C0B5EE86AD8A0010E0E5E7C
:1004C00011D008260550D8B0053C09260650D8B0F2
:1004D000063C0A260750D8B0073C0B26E86AD8B07D
:1004E000010E0E2600360C2ED1D700B00ED00450CF
:1004F00008260550D8B0053C09260650D8B0063C61
:0C0500000A260750D8B0073C0B2612005A
:10050C000FD0800E2F6E19D0C00E2F6E16D0940EF9
:10051C002F6E13D0D40E2F6E10D0800E2F6E0DD0E8
:10052C002F50010AEEE02F50020AEEE02F50030A82
:10053C00EEE02F50040AEEE0F0D73004006E2F509E
:10054C00002600C02FF000C035F075DD1A90336A1C
:10055C0033503124E96E000E3220EA6EEE520BE07D
:10056C0033503124E96E000E3220EA6EEECF34F0B7
:0A057C00A0DD332AEDD71A8012002B
:1005860069EC03F0C4DDD5DD010E356E57DD0C0ECA
:10059600356E54DD2F6AA4DD000E026E036E880EE2
:1005A600046E130E056E000E066E000E076E0CDE50
:1005B600FF0E046E030E056E000E066E076E2DDE30
:1005C60000C02BF001C02CF002C02DF003C02EF0AD
:1005D6002B362B902C362D362E362B362B902C3652
:1005E6002D362E36100E046E270E056E000E066E84
:1005F600076E2BC000F02CC001F02DC002F02EC0FB
:1006060003F00BDE300E002600C01BF0E80E046E71
:10061600030E056E000E066E076E2BC000F02CC092
:1006260001F02DC002F02EC003F0F7DD0A0E046EB5
:10063600000E056E066E076EF0DD08C000F009C0FC
:1006460001F00AC002F00BC003F0300E00241C6E4D
:100656002E0E1D6E640E046E000E056E066E076E7F
:100666002BC000F02CC001F02DC002F02EC003F00C
:10067600D4DD0A0E046E000E056E066E076ECDDD25
:1006860008C000F009C001F00AC002F00BC003F078
:10069600300E00241E6E200E1F6E560E206E216A2E
:1006A600010E2F6E010E306E1B0E316E000E326E75
:1006B6002ADF340E0C6EF10E0D6E0D2EFED70C2EAB
:0A06C600FCD70000000066D7FFD744
:1006D20010EE15F0010E006E010E016ED00EF66ED8
:0E06E200060EF76E000EF86E6BEC00F01200C4
:0106D00030F9
:020000040030CA
:0E000000000C1F1EFF8381FF0FC00FE00F409A
:00000001FF
